{
  "address": "0x8511950E2924291B6613Cac4a0A7E126aa9837bC",
  "abi": [
    {
      "inputs": [
        {
          "internalType": "address",
          "name": "_opToken",
          "type": "address"
        }
      ],
      "stateMutability": "nonpayable",
      "type": "constructor"
    },
    {
      "anonymous": false,
      "inputs": [
        {
          "indexed": false,
          "internalType": "uint256",
          "name": "taskId",
          "type": "uint256"
        },
        {
          "indexed": false,
          "internalType": "uint256",
          "name": "solutionId",
          "type": "uint256"
        },
        {
          "indexed": false,
          "internalType": "address",
          "name": "solver",
          "type": "address"
        }
      ],
      "name": "RewardClaimed",
      "type": "event"
    },
    {
      "anonymous": false,
      "inputs": [
        {
          "indexed": false,
          "internalType": "uint256",
          "name": "taskId",
          "type": "uint256"
        },
        {
          "indexed": false,
          "internalType": "uint256",
          "name": "solutionId",
          "type": "uint256"
        }
      ],
      "name": "SolutionSelected",
      "type": "event"
    },
    {
      "anonymous": false,
      "inputs": [
        {
          "indexed": false,
          "internalType": "uint256",
          "name": "solutionId",
          "type": "uint256"
        },
        {
          "indexed": false,
          "internalType": "uint256",
          "name": "taskId",
          "type": "uint256"
        },
        {
          "indexed": false,
          "internalType": "address",
          "name": "solver",
          "type": "address"
        }
      ],
      "name": "SolutionSubmitted",
      "type": "event"
    },
    {
      "anonymous": false,
      "inputs": [
        {
          "indexed": false,
          "internalType": "uint256",
          "name": "taskId",
          "type": "uint256"
        },
        {
          "indexed": false,
          "internalType": "address",
          "name": "creator",
          "type": "address"
        },
        {
          "indexed": false,
          "internalType": "uint256",
          "name": "reward",
          "type": "uint256"
        }
      ],
      "name": "TaskCreated",
      "type": "event"
    },
    {
      "inputs": [
        {
          "internalType": "uint256",
          "name": "taskId",
          "type": "uint256"
        }
      ],
      "name": "claimReward",
      "outputs": [],
      "stateMutability": "nonpayable",
      "type": "function"
    },
    {
      "inputs": [
        {
          "internalType": "uint256",
          "name": "reward",
          "type": "uint256"
        }
      ],
      "name": "createTask",
      "outputs": [],
      "stateMutability": "payable",
      "type": "function"
    },
    {
      "inputs": [],
      "name": "opToken",
      "outputs": [
        {
          "internalType": "contract OPToken",
          "name": "",
          "type": "address"
        }
      ],
      "stateMutability": "view",
      "type": "function"
    },
    {
      "inputs": [
        {
          "internalType": "uint256",
          "name": "taskId",
          "type": "uint256"
        },
        {
          "internalType": "uint256",
          "name": "solutionId",
          "type": "uint256"
        }
      ],
      "name": "selectSolution",
      "outputs": [],
      "stateMutability": "nonpayable",
      "type": "function"
    },
    {
      "inputs": [],
      "name": "solutionCount",
      "outputs": [
        {
          "internalType": "uint256",
          "name": "",
          "type": "uint256"
        }
      ],
      "stateMutability": "view",
      "type": "function"
    },
    {
      "inputs": [
        {
          "internalType": "uint256",
          "name": "",
          "type": "uint256"
        }
      ],
      "name": "solutions",
      "outputs": [
        {
          "internalType": "uint256",
          "name": "id",
          "type": "uint256"
        },
        {
          "internalType": "uint256",
          "name": "taskId",
          "type": "uint256"
        },
        {
          "internalType": "address",
          "name": "solver",
          "type": "address"
        },
        {
          "internalType": "string",
          "name": "content",
          "type": "string"
        },
        {
          "internalType": "bool",
          "name": "rewarded",
          "type": "bool"
        }
      ],
      "stateMutability": "view",
      "type": "function"
    },
    {
      "inputs": [
        {
          "internalType": "uint256",
          "name": "taskId",
          "type": "uint256"
        },
        {
          "internalType": "string",
          "name": "content",
          "type": "string"
        }
      ],
      "name": "submitSolution",
      "outputs": [],
      "stateMutability": "payable",
      "type": "function"
    },
    {
      "inputs": [],
      "name": "taskCount",
      "outputs": [
        {
          "internalType": "uint256",
          "name": "",
          "type": "uint256"
        }
      ],
      "stateMutability": "view",
      "type": "function"
    },
    {
      "inputs": [
        {
          "internalType": "uint256",
          "name": "",
          "type": "uint256"
        }
      ],
      "name": "tasks",
      "outputs": [
        {
          "internalType": "uint256",
          "name": "id",
          "type": "uint256"
        },
        {
          "internalType": "address",
          "name": "creator",
          "type": "address"
        },
        {
          "internalType": "uint256",
          "name": "reward",
          "type": "uint256"
        },
        {
          "internalType": "enum TaskRegistry.TaskStatus",
          "name": "status",
          "type": "uint8"
        },
        {
          "internalType": "uint256",
          "name": "selectedSolution",
          "type": "uint256"
        }
      ],
      "stateMutability": "view",
      "type": "function"
    }
  ],
  "transactionHash": "0x93fc7f3b6e83293e855948dc713fb63cab6714bf8595d1f6a4582eb8a6765d50",
  "args": [
    "0xC44D5bD0874c6e67dbCF3CCeD8141627609E235b"
  ],
  "numDeployments": 1,
  "solcInputHash": "0783fd7980988b0d9bc5d5661a1d767d",
  "bytecode": "0x608060405234801561001057600080fd5b50604051610daf380380610daf83398101604081905261002f91610054565b600480546001600160a01b0319166001600160a01b0392909216919091179055610084565b60006020828403121561006657600080fd5b81516001600160a01b038116811461007d57600080fd5b9392505050565b610d1c806100936000396000f3fe6080604052600436106100865760003560e01c80638d977672116100595780638d97767214610121578063ae169a5014610189578063b6cb58a5146101a9578063b71698c7146101bf578063d3b5c016146101f057600080fd5b80631105f7be1461008b57806331d66934146100ad5780633a89df44146100c05780636b3e219b146100fd575b600080fd5b34801561009757600080fd5b506100ab6100a6366004610962565b610203565b005b6100ab6100bb366004610984565b610368565b3480156100cc57600080fd5b506004546100e0906001600160a01b031681565b6040516001600160a01b0390911681526020015b60405180910390f35b34801561010957600080fd5b5061011360035481565b6040519081526020016100f4565b34801561012d57600080fd5b5061017861013c366004610984565b6000602081905290815260409020805460018201546002830154600384015460049094015492936001600160a01b0390921692909160ff169085565b6040516100f49594939291906109b3565b34801561019557600080fd5b506100ab6101a4366004610984565b610537565b3480156101b557600080fd5b5061011360025481565b3480156101cb57600080fd5b506101df6101da366004610984565b610742565b6040516100f4959493929190610a01565b6100ab6101fe366004610a92565b610807565b600082815260208190526040902060018101546001600160a01b031633146102655760405162461bcd60e51b815260206004820152601060248201526f2737ba103a30b9b59031b932b0ba37b960811b60448201526064015b60405180910390fd5b6000600382015460ff1660028111156102805761028061099d565b146102be5760405162461bcd60e51b815260206004820152600e60248201526d496e76616c69642073746174757360901b604482015260640161025c565b6000828152600160208190526040909120015483146103135760405162461bcd60e51b81526020600482015260116024820152700a6ded8eae8d2dedc40dad2e6dac2e8c6d607b1b604482015260640161025c565b6004810182905560038101805460ff1916600117905560408051848152602081018490527fd1abe7d17171acc18665b54e2e6283df3e89a51f8b513e14b99115231ad8a17e91015b60405180910390a1505050565b600081116103b85760405162461bcd60e51b815260206004820152601760248201527f526577617264206d75737420626520706f736974697665000000000000000000604482015260640161025c565b600480546040516323b872dd60e01b81523392810192909252306024830152604482018390526001600160a01b0316906323b872dd906064016020604051808303816000875af1158015610410573d6000803e3d6000fd5b505050506040513d601f19601f820116820180604052508101906104349190610b4d565b506002805490600061044583610b76565b90915550506040805160a08101825260025481523360208201529081018290526060810160008152600060209182018190526002805482528183526040918290208451815592840151600180850180546001600160a01b0319166001600160a01b0390931692909217909155918401518382015560608401516003840180549193909260ff199092169184908111156104e0576104e061099d565b0217905550608091909101516004909101556002546040805191825233602083015281018290527f6cf53aa7292e664152c2ea948c3b3c95d4b05c36daeb2626d0293473c4a4a1539060600160405180910390a150565b60008181526020819052604090206001600382015460ff1660028111156105605761056061099d565b146105a05760405162461bcd60e51b815260206004820152601060248201526f526577617264206e6f7420726561647960801b604482015260640161025c565b60048082015460009081526001602052604090209081015460ff16156105fb5760405162461bcd60e51b815260206004820152601060248201526f105b1c9958591e481c995dd85c99195960821b604482015260640161025c565b60028101546001600160a01b0316331461064f5760405162461bcd60e51b81526020600482015260156024820152742737ba1039b7b63aba34b7b710383937bb34b232b960591b604482015260640161025c565b6004818101805460ff1990811660011790915560038401805490911660029081179091558154818401549185015460405163a9059cbb60e01b81526001600160a01b03938416948101949094526024840152169063a9059cbb906044016020604051808303816000875af11580156106cb573d6000803e3d6000fd5b505050506040513d601f19601f820116820180604052508101906106ef9190610b4d565b50600482015460028201546040805186815260208101939093526001600160a01b03909116908201527f37d2f91e40046979553b8bc9bf12a192e2216dc0a5d3a3e91a8d0ccac8f495e09060600161035b565b6001602081905260009182526040909120805491810154600282015460038301805492936001600160a01b039092169261077b90610b9d565b80601f01602080910402602001604051908101604052809291908181526020018280546107a790610b9d565b80156107f45780601f106107c9576101008083540402835291602001916107f4565b820191906000526020600020905b8154815290600101906020018083116107d757829003601f168201915b5050506004909301549192505060ff1685565b60008281526020819052604081206003015460ff16600281111561082d5761082d61099d565b1461086a5760405162461bcd60e51b815260206004820152600d60248201526c2a30b9b5903737ba1037b832b760991b604482015260640161025c565b6003805490600061087a83610b76565b90915550506040805160a0810182526003805480835260208084018781523385870190815260608601888152600060808801819052948552600193849052969093208551815590519181019190915590516002820180546001600160a01b0319166001600160a01b039092169190911790559251919291908201906108ff9082610c26565b50608091909101516004909101805460ff1916911515919091179055600354604080519182526020820184905233908201527fb90ce338b8573e81c34ada6d957ebd0e04df044ff9d4deb7a5decca62857261b9060600160405180910390a15050565b6000806040838503121561097557600080fd5b50508035926020909101359150565b60006020828403121561099657600080fd5b5035919050565b634e487b7160e01b600052602160045260246000fd5b8581526001600160a01b03851660208201526040810184905260a08101600384106109ee57634e487b7160e01b600052602160045260246000fd5b6060820193909352608001529392505050565b85815260006020868184015260018060a01b038616604084015260a0606084015284518060a085015260005b81811015610a495786810183015185820160c001528201610a2d565b50600060c0828601015260c0601f19601f83011685010192505050610a72608083018415159052565b9695505050505050565b634e487b7160e01b600052604160045260246000fd5b60008060408385031215610aa557600080fd5b82359150602083013567ffffffffffffffff80821115610ac457600080fd5b818501915085601f830112610ad857600080fd5b813581811115610aea57610aea610a7c565b604051601f8201601f19908116603f01168101908382118183101715610b1257610b12610a7c565b81604052828152886020848701011115610b2b57600080fd5b8260208601602083013760006020848301015280955050505050509250929050565b600060208284031215610b5f57600080fd5b81518015158114610b6f57600080fd5b9392505050565b600060018201610b9657634e487b7160e01b600052601160045260246000fd5b5060010190565b600181811c90821680610bb157607f821691505b602082108103610bd157634e487b7160e01b600052602260045260246000fd5b50919050565b601f821115610c2157600081815260208120601f850160051c81016020861015610bfe5750805b601f850160051c820191505b81811015610c1d57828155600101610c0a565b5050505b505050565b815167ffffffffffffffff811115610c4057610c40610a7c565b610c5481610c4e8454610b9d565b84610bd7565b602080601f831160018114610c895760008415610c715750858301515b600019600386901b1c1916600185901b178555610c1d565b600085815260208120601f198616915b82811015610cb857888601518255948401946001909101908401610c99565b5085821015610cd65787850151600019600388901b60f8161c191681555b5050505050600190811b0190555056fea2646970667358221220319106414af86672a5c42f0a65a87a59a5a4f165b01c380e9fde04e32c0e9a1864736f6c63430008140033",
  "devdoc": {
    "kind": "dev",
    "methods": {},
    "version": 1
  },
  "userdoc": {
    "kind": "user",
    "methods": {},
    "version": 1
  },
  "storageLayout": {
    "storage": [
      {
        "astId": 211,
        "contract": "contracts/TaskRegistry.sol:TaskRegistry",
        "label": "tasks",
        "offset": 0,
        "slot": "0",
        "type": "t_mapping(t_uint256,t_struct(Task)195_storage)"
      },
      {
        "astId": 216,
        "contract": "contracts/TaskRegistry.sol:TaskRegistry",
        "label": "solutions",
        "offset": 0,
        "slot": "1",
        "type": "t_mapping(t_uint256,t_struct(Solution)206_storage)"
      },
      {
        "astId": 218,
        "contract": "contracts/TaskRegistry.sol:TaskRegistry",
        "label": "taskCount",
        "offset": 0,
        "slot": "2",
        "type": "t_uint256"
      },
      {
        "astId": 220,
        "contract": "contracts/TaskRegistry.sol:TaskRegistry",
        "label": "solutionCount",
        "offset": 0,
        "slot": "3",
        "type": "t_uint256"
      },
      {
        "astId": 223,
        "contract": "contracts/TaskRegistry.sol:TaskRegistry",
        "label": "opToken",
        "offset": 0,
        "slot": "4",
        "type": "t_contract(OPToken)179"
      }
    ],
    "types": {
      "t_address": {
        "encoding": "inplace",
        "label": "address",
        "numberOfBytes": "20"
      },
      "t_bool": {
        "encoding": "inplace",
        "label": "bool",
        "numberOfBytes": "1"
      },
      "t_contract(OPToken)179": {
        "encoding": "inplace",
        "label": "contract OPToken",
        "numberOfBytes": "20"
      },
      "t_enum(TaskStatus)183": {
        "encoding": "inplace",
        "label": "enum TaskRegistry.TaskStatus",
        "numberOfBytes": "1"
      },
      "t_mapping(t_uint256,t_struct(Solution)206_storage)": {
        "encoding": "mapping",
        "key": "t_uint256",
        "label": "mapping(uint256 => struct TaskRegistry.Solution)",
        "numberOfBytes": "32",
        "value": "t_struct(Solution)206_storage"
      },
      "t_mapping(t_uint256,t_struct(Task)195_storage)": {
        "encoding": "mapping",
        "key": "t_uint256",
        "label": "mapping(uint256 => struct TaskRegistry.Task)",
        "numberOfBytes": "32",
        "value": "t_struct(Task)195_storage"
      },
      "t_string_storage": {
        "encoding": "bytes",
        "label": "string",
        "numberOfBytes": "32"
      },
      "t_struct(Solution)206_storage": {
        "encoding": "inplace",
        "label": "struct TaskRegistry.Solution",
        "members": [
          {
            "astId": 197,
            "contract": "contracts/TaskRegistry.sol:TaskRegistry",
            "label": "id",
            "offset": 0,
            "slot": "0",
            "type": "t_uint256"
          },
          {
            "astId": 199,
            "contract": "contracts/TaskRegistry.sol:TaskRegistry",
            "label": "taskId",
            "offset": 0,
            "slot": "1",
            "type": "t_uint256"
          },
          {
            "astId": 201,
            "contract": "contracts/TaskRegistry.sol:TaskRegistry",
            "label": "solver",
            "offset": 0,
            "slot": "2",
            "type": "t_address"
          },
          {
            "astId": 203,
            "contract": "contracts/TaskRegistry.sol:TaskRegistry",
            "label": "content",
            "offset": 0,
            "slot": "3",
            "type": "t_string_storage"
          },
          {
            "astId": 205,
            "contract": "contracts/TaskRegistry.sol:TaskRegistry",
            "label": "rewarded",
            "offset": 0,
            "slot": "4",
            "type": "t_bool"
          }
        ],
        "numberOfBytes": "160"
      },
      "t_struct(Task)195_storage": {
        "encoding": "inplace",
        "label": "struct TaskRegistry.Task",
        "members": [
          {
            "astId": 185,
            "contract": "contracts/TaskRegistry.sol:TaskRegistry",
            "label": "id",
            "offset": 0,
            "slot": "0",
            "type": "t_uint256"
          },
          {
            "astId": 187,
            "contract": "contracts/TaskRegistry.sol:TaskRegistry",
            "label": "creator",
            "offset": 0,
            "slot": "1",
            "type": "t_address"
          },
          {
            "astId": 189,
            "contract": "contracts/TaskRegistry.sol:TaskRegistry",
            "label": "reward",
            "offset": 0,
            "slot": "2",
            "type": "t_uint256"
          },
          {
            "astId": 192,
            "contract": "contracts/TaskRegistry.sol:TaskRegistry",
            "label": "status",
            "offset": 0,
            "slot": "3",
            "type": "t_enum(TaskStatus)183"
          },
          {
            "astId": 194,
            "contract": "contracts/TaskRegistry.sol:TaskRegistry",
            "label": "selectedSolution",
            "offset": 0,
            "slot": "4",
            "type": "t_uint256"
          }
        ],
        "numberOfBytes": "160"
      },
      "t_uint256": {
        "encoding": "inplace",
        "label": "uint256",
        "numberOfBytes": "32"
      }
    }
  }
}